:020000040800F2
:10000000005000200D0A00084D090008550900089D
:100010005D090008650900086D090008000000007E
:10002000000000000000000000000000750900084A
:1000300081090008000000008D09000899090008E6
:10004000550A0008550A0008550A0008550A000814
:10005000550A0008550A0008550A0008550A000804
:10006000550A0008550A0008550A0008550A0008F4
:10007000550A0008550A0008550A0008550A0008E4
:10008000550A0008550A0008550A0008550A0008D4
:10009000550A0008550A0008550A0008550A0008C4
:1000A000550A0008D9040008550A0008550A000836
:1000B000550A0008550A0008550A0008550A0008A4
:1000C000550A0008550A0008550A0008550A000894
:1000D000550A0008550A0008550A0008550A000884
:1000E000550A0008550A0008550A000800000000DB
:1000F0000000000000000000000000000000000000
:0C01000000000000000000005FF808F1A3
:10010C0010B5054C237833B9044B13B10448AFF345
:10011C0000800123237010BDB405002000000000F6
:10012C00C40A000808B5034B1BB103490348AFF3DD
:10013C00008008BD00000000B8050020C40A0008BB
:10014C0080B500AF00F0B4FA00F0C6FA00F0F4FA93
:10015C0000F002FB00F014FB00F096FB00F0C4FB77
:10016C0000F04AFB00F0D0FB9B4BFF221A609B4B2C
:10017C001B68B3F5FA7FC0F21681994B1B680133EB
:10018C00974A1360954B00221A60964B1A68964B4F
:10019C001B68D31A954A1360954B1A68934B1B68CE
:1001AC0013441B11924A1360904B1B68914A82FBBB
:1001BC0003121213DB17D21A8D4B1B6813448E4A91
:1001CC0013608D4B1B68322B02DD8B4B32221A6075
:1001DC00894B1B68002B02DC874B01221A60874B72
:1001EC001B6840F69E42934211DD854B1B68013320
:1001FC00834A1360824B1B68012B08DD804B002265
:10020C001A60804B80221A617E4B10221A617B4B44
:10021C001B6840F61242934211DD794B1B68013387
:10022C00774A1360764B1B68032B08DD744B002256
:10023C001A60744B80221A61724B10221A616F4B38
:10024C001B68B3F53D6F07DC6E4B4FF400021A616F
:10025C006C4B4FF480121A61614B1B68272B40F3D7
:10026C00A2805F4B00221A60674B1B6C4FF4D47258
:10027C0003FB02F2654BA3FB0213D21A5208134480
:10028C00DB0ADAB2624B1A705F4B1B6C4FF4D47200
:10029C0003FB02F25D4BA3FB0213D21A5208134468
:1002AC00DB0A1B0ADAB25A4B5A705A4B1B6CDBB284
:1002BC001A46920013441A4691001A460B461344F0
:1002CC009B00DAB2524B9A70524B1B6C642202FBAD
:1002DC0003F31B0ADAB24E4BDA704B4BDB6BDAB220
:1002EC004B4B1A71484BDB6B1B0ADAB2484B5A71F9
:1002FC00414B1B68DBB21A46920013445B00DAB226
:10030C00434B9A713C4B1A6813469B0013445B0099
:10031C001B12DAB23E4BDA713F4B00221A603F4B94
:10032C001B68B3F52F6F03DD3D4B4FF000521A6184
:10033C003A4B1B6840F68B22934215DC374B1B68FB
:10034C0040F6C41293420FDD364B1B680133354A1D
:10035C001360344B1B680F2B06DD324B00221A60E6
:10036C002F4B4FF400521A612C4B1B6840F62D1288
:10037C0093420EDC2B4B1B6801332A4A1360294B2A
:10038C001B68032B05DD274B00221A601D4B8022B6
:10039C001A61224B1B6840F68C22934203DD194BE9
:1003AC004FF400021A611C4B1B68072B11DC1A4B13
:1003BC001B68174AD25C1C4B5A6000BF1A4B1B6857
:1003CC0003F04003002BF9D0134B1B680133124A86
:1003DC001360164B1B682BE0002C0040F00500202E
:1003EC00E405002000000020F4050020FC0500209E
:1003FC0000060020AD8BDB680400002020060020E6
:10040C00D005002000080140002801400101100027
:10041C00E805002000240140E0050020280600200B
:10042C0000100140DC05002000480040D8050020E9
:10043C00032B7FF799AE214B00221A60204B1B68CF
:10044C0040F69912934211DD1E4B1B6801331D4A75
:10045C0013601C4B1B68012B08DD1A4B00221A6021
:10046C00194B80221A61184B04221A61144B1B6819
:10047C0040F68402934211DD124B1B680133114A82
:10048C001360104B1B68032B08DD0E4B00221A6007
:10049C000D4B80221A610C4B04221A61084B1B680D
:1004AC00B3F5006FBFF660AE074B4FF400021A6154
:1004BC00054B4FF480221A6156E600BFD805002088
:1004CC0024060020D40500200008014080B400AFB1
:1004DC005F4B00221A615F4B08221A615E4B1A684F
:1004EC005E4B1B6892FBF3F35D4A13605D4B1A681D
:1004FC005B4B1B689A4202DB5A4B00221A605A4B28
:10050C001B680133584A1360584B1B680133574A18
:10051C001360544B1B680133524A1360544B9B6855
:10052C00534A43F400139360524B9B68514A43F473
:10053C00001393604E4BDB6BA3F500631A464E4BD6
:10054C001A604C4BDB6B1A464C4B1A60484B1B6CBD
:10055C001A464B4B1A60474B1B6C1A46494B1A6098
:10056C00444B5B6C1A46484B1A603E4B1B683B4A2B
:10057C00126802FB03F34FF4B47203FB02F2364B26
:10058C001B6892FBF3F3414A1360404B1B68404AD3
:10059C0052F823303F4A1360304B1B683D4A1268B7
:1005AC0002FB03F33C4A82FB03121211DB17D21A33
:1005BC00314B1B68D31A394A1360394B1A68374BC5
:1005CC001B6813445B10364A1360344B1A6813468D
:1005DC009B001344DA00D31A324A82FB03129210A6
:1005EC00DB17D21A2E4B1B6813442F4A13602E4B69
:1005FC001B6840F27B62934203DD2B4B40F27B6223
:10060C001A60294B1B68294A934202DA264B274A67
:10061C001A60254B1B68002B06DB234B1A680C4B0E
:10062C005A630B4B00229A631F4B1B68002B07DA93
:10063C00074B00225A631C4B1B685A42044B9A63AB
:10064C00044B4FF400221A6100BFBD4680BC7047BA
:10065C00002C01400008014008000020040000208C
:10066C000406002010060020F0050020D80500200C
:10067C0000240140002801401C060020F405002045
:10068C002406002020060020280600201406002046
:10069C000C0000201806002079787878F8050020E6
:1006AC0008060020676666660C06002085F9FFFFC9
:1006BC0080B400AF074B12221A6000BF054B1B68B9
:1006CC0003F02003002BF9D000BF00BFBD4680BC57
:1006DC00704700BF0020024080B400AF124B134A99
:1006EC005A60114B124A1A6000BF0F4B5B6803F043
:1006FC000203002BF9D000BF0B4B1B6803F4003333
:10070C00002BF9D000BF084B1B6803F00073002BC3
:10071C00F9D0054B40F63D629A61034B054ADA610C
:10072C0000BFBD4680BC70470010024002841D0013
:10073C00000001010008041080B400AF054B40F22A
:10074C00FF125A60034B7F221A6000BFBD4680BC6B
:10075C00704700BF002C004080B400AF074B9022C4
:10076C001A6000BF054B5B6803F00403002BF9D142
:10077C0000BF00BFBD4680BC704700BF007000408A
:10078C0080B400AF124B134A1A60114B124A5A60D4
:10079C00124B134A1A60114B124A5A60124B134AED
:1007AC005A60134B134A1A60094B4FF47C42DA60BF
:1007BC000A4B49F6FE32DA600B4B4FF44042DA60DA
:1007CC00094B0222DA6000BFBD4680BC704700BFF7
:1007DC00000801400011011099888888000C014024
:1007EC00808888888889988900100140444414883E
:1007FC00001401408844444480B400AF1B4B0122D8
:10080C009A601B4B01229A60184B9B68174A43F461
:10081C00704343F002039360154B9B68144A43F4F6
:10082C00704343F002039360104B124A5A60104B12
:10083C00104A5A600D4B104A1A610D4B0F4A1A613F
:10084C000A4B0F4A9A630A4B0E4A9A63074B9B68F2
:10085C00064A43F400139360054B9B68044A43F427
:10086C000013936000BFBD4680BC7047002401405C
:10087C0000280140000105001000080002000102E0
:10088C00000413000015200080B400AF154B0022AB
:10089C009A62144B40F27B62DA62124B40221A606D
:1008AC00104B20225A600F4B00229A600D4B46F2DF
:1008BC0060029A610B4B0122DA600A4B55221A62D4
:1008CC00084B44F286025A64064B1B68054A43F0F7
:1008DC0001031360034B01221A6300BFBD4680BCA9
:1008EC00704700BF002C014080B400AF054B4FF0A7
:1008FC0000721A60034B072283F8192300BFBD4610
:10090C0080BC704700E100E080B400AF0B4B4FF4AB
:10091C000052DA60094B4FF4D8629A60074BDB68DF
:10092C00064A43F00403D360044BDB68034A43F0EC
:10093C000803D36000BFBD4680BC70470048004030
:10094C0080B400AF00BFFDE780B400AF00BFFDE78F
:10095C0080B400AF00BFFDE780B400AF00BFFDE77F
:10096C0080B400AF00BFFDE780B400AF00BFBD4650
:10097C0080BC704780B400AF00BFBD4680BC7047E0
:10098C0080B400AF00BFBD4680BC704780B500AFDF
:10099C0000F05CF800BF80BD80B400AF154B1B6845
:1009AC00144A43F001031360124B5A681149124B5D
:1009BC0013404B600F4B1B680E4A23F0847323F4D7
:1009CC00803313600B4B1B680A4A23F4802313609B
:1009DC00084B5B68074A23F4FE035360054B4FF446
:1009EC001F029A60054B4FF000629A6000BFBD4633
:1009FC0080BC7047001002400000FFF800ED00E0E2
:100A0C00002103E00B4B5B58435004310A480B4B5D
:100A1C0042189A42F6D30A4A02E0002342F8043BF9
:100A2C00084B9A42F9D3FFF7B7FF00F021F8FFF714
:100A3C0087FB7047E40A000800000020B405002082
:100A4C00B405002030060020FEE7000080B400AFA3
:100A5C00054B1B781A46054B1B681344034A13605D
:100A6C0000BFBD4680BC7047B00500202C0600209E
:100A7C0070B500260C4D0D4C641BA410A64209D178
:100A8C0000F01AF800260A4D0A4C641BA410A6426A
:100A9C0005D170BD55F8043B98470136EEE755F883
:100AAC00043B98470136F2E7DC0A0008DC0A000830
:100ABC00DC0A0008E00A0008F8B500BFF8BC08BC66
:100ACC009E467047F8B500BFF8BC08BC9E46704700
:040ADC0031010008DC
:040AE0000D010008FC
:100AE4006606000023000000204E00000000000005
:100AF400120000002400000036000000470000003F
:100B0400590000006B0000007D0000008E00000012
:100B1400A0000000B2000000C3000000D5000000E7
:100B2400E6000000F8000000090100001A010000BE
:100B34002B0100003C0100004D0100005E0100009B
:100B44006F0100008001000090010000A00100007E
:100B5400B1010000C1010000D1010000E101000069
:100B6400F0010000000200000F0200001F0200005C
:100B74002E0200003D0200004B0200005A02000059
:100B84006802000076020000840200009202000065
:100B9400A0020000AD020000BA020000C70200007B
:100BA400D4020000E1020000ED020000F90200009E
:100BB40005030000100300001C03000027030000CD
:100BC400320300003C03000047030000510300000F
:100BD4005B030000640300006E0300007703000061
:100BE40080030000880300009003000098030000C5
:100BF400A0030000A7030000AF030000B50300003A
:100C0400BC030000C2030000C8030000CE030000C0
:100C1400D3030000D8030000DD030000E20300005A
:100C2400E6030000EA030000ED030000F003000007
:100C3400F3030000F6030000F8030000FA030000C9
:100C4400FC030000FD030000FF030000FF0300009D
:100C5400000400000004000000040000FF03000082
:100C6400FF030000FE030000FC030000FA03000081
:100C7400F8030000F6030000F3030000F003000093
:100C8400ED030000EA030000E6030000E2030000B5
:100C9400DD030000D8030000D3030000CE030000EE
:100CA400C8030000C2030000BC030000B503000039
:100CB400AF030000A7030000A00300009803000096
:100CC4009003000088030000800300007703000005
:100CD4006E030000640300005A0300005103000087
:100CE400470300003C030000320300002703000018
:100CF4001C0300001003000005030000F9020000BB
:100D0400ED020000E1020000D4020000C70200006E
:100D1400BA020000AD020000A0020000920200002E
:100D24008402000076020000680200005A020000FB
:100D34004B0200003D0200002E0200001F020000D2
:100D44000F02000000020000F0010000E1010000B9
:100D5400D1010000C1010000B1010000A1010000A7
:100D640090010000800100006F0100005E0100009E
:100D74004D0100003C0100002B0100001A0100009D
:100D840009010000F8000000E6000000D5000000A2
:100D9400C3000000B2000000A00000008F000000AB
:100DA4007D0000006B0000005900000047000000B7
:100DB40036000000240000001200000000000000C3
:100DC400EEFFFFFFDCFFFFFFCAFFFFFFB9FFFFFFDE
:100DD400A7FFFFFF95FFFFFF83FFFFFF71FFFFFFEB
:100DE40060FFFFFF4EFFFFFF3DFFFFFF2BFFFFFFF5
:100DF4001AFFFFFF08FFFFFFF7FEFFFFE6FEFFFFFE
:100E0400D5FEFFFFC4FEFFFFB3FEFFFFA2FEFFFF00
:100E140091FEFFFF80FEFFFF70FEFFFF5FFEFFFFFE
:100E24004FFEFFFF3FFEFFFF2FFEFFFF1FFEFFFFF2
:100E34000FFEFFFF00FEFFFFF1FDFFFFE1FDFFFFDF
:100E4400D2FDFFFFC3FDFFFFB5FDFFFFA6FDFFFFC2
:100E540098FDFFFF8AFDFFFF7CFDFFFF6EFDFFFF96
:100E640060FDFFFF53FDFFFF46FDFFFF39FDFFFF60
:100E74002CFDFFFF1FFDFFFF13FDFFFF07FDFFFF1D
:100E8400FBFCFFFFF0FCFFFFE4FCFFFFD9FCFFFFCE
:100E9400CEFCFFFFC4FCFFFFB9FCFFFFAFFCFFFF6C
:100EA400A5FCFFFF9CFCFFFF92FCFFFF89FCFFFFFA
:100EB40080FCFFFF78FCFFFF70FCFFFF68FCFFFF76
:100EC40060FCFFFF59FCFFFF51FCFFFF4BFCFFFFE1
:100ED40044FCFFFF3EFCFFFF38FCFFFF32FCFFFF3A
:100EE4002DFCFFFF28FCFFFF23FCFFFF1EFCFFFF80
:100EF4001AFCFFFF16FCFFFF13FCFFFF10FCFFFFB3
:100F04000DFCFFFF0AFCFFFF08FCFFFF06FCFFFFD0
:100F140004FCFFFF03FCFFFF01FCFFFF01FCFFFFDC
:100F240000FCFFFF00FCFFFF00FCFFFF01FCFFFFD4
:100F340001FCFFFF02FCFFFF04FCFFFF06FCFFFFB8
:100F440008FCFFFF0AFCFFFF0DFCFFFF10FCFFFF86
:100F540013FCFFFF16FCFFFF1AFCFFFF1EFCFFFF44
:100F640023FCFFFF28FCFFFF2DFCFFFF32FCFFFFEB
:100F740038FCFFFF3EFCFFFF44FCFFFF4BFCFFFF80
:100F840051FCFFFF59FCFFFF60FCFFFF68FCFFFF03
:100F940070FCFFFF78FCFFFF80FCFFFF89FCFFFF74
:100FA40092FCFFFF9CFCFFFFA5FCFFFFAFFCFFFFD3
:100FB400B9FCFFFFC4FCFFFFCEFCFFFFD9FCFFFF21
:100FC400E4FCFFFFF0FCFFFFFBFCFFFF07FDFFFF5E
:100FD40013FDFFFF1FFDFFFF2CFDFFFF39FDFFFF8A
:100FE40046FDFFFF53FDFFFF60FDFFFF6EFDFFFFAA
:100FF4007CFDFFFF8AFDFFFF98FDFFFFA6FDFFFFBD
:10100400B5FDFFFFC3FDFFFFD2FDFFFFE1FDFFFFC5
:10101400F1FDFFFF00FEFFFF10FEFFFF1FFEFFFFBD
:101024002FFEFFFF3FFEFFFF4FFEFFFF60FEFFFFAF
:1010340070FEFFFF80FEFFFF91FEFFFFA2FEFFFF99
:10104400B3FEFFFFC4FEFFFFD5FEFFFFE6FEFFFF7A
:10105400F7FEFFFF08FFFFFF1AFFFFFF2BFFFFFF55
:101064003DFFFFFF4EFFFFFF60FFFFFF71FFFFFF2C
:1010740083FFFFFF95FFFFFFA7FFFFFFB9FFFFFF00
:10108400CAFFFFFFDCFFFFFFEEFFFFFF00000000D1
:041094000100000057
:0400000508000A0DD8
:00000001FF
